{
  "contractName": "SupplyChain",
  "abi": [
    {
      "inputs": [],
      "stateMutability": "nonpayable",
      "type": "constructor"
    },
    {
      "inputs": [],
      "name": "productsCount",
      "outputs": [
        {
          "internalType": "uint256",
          "name": "",
          "type": "uint256"
        }
      ],
      "stateMutability": "view",
      "type": "function",
      "constant": true
    },
    {
      "inputs": [],
      "name": "uid",
      "outputs": [
        {
          "internalType": "uint256",
          "name": "",
          "type": "uint256"
        }
      ],
      "stateMutability": "view",
      "type": "function",
      "constant": true
    },
    {
      "inputs": [],
      "name": "usersCount",
      "outputs": [
        {
          "internalType": "uint256",
          "name": "",
          "type": "uint256"
        }
      ],
      "stateMutability": "view",
      "type": "function",
      "constant": true
    },
    {
      "inputs": [
        {
          "internalType": "address",
          "name": "",
          "type": "address"
        }
      ],
      "name": "usersMapping",
      "outputs": [
        {
          "internalType": "enum Structure.Role",
          "name": "role",
          "type": "uint8"
        },
        {
          "internalType": "address",
          "name": "userAddress",
          "type": "address"
        },
        {
          "internalType": "string",
          "name": "name",
          "type": "string"
        }
      ],
      "stateMutability": "view",
      "type": "function",
      "constant": true
    },
    {
      "inputs": [
        {
          "internalType": "uint256",
          "name": "role",
          "type": "uint256"
        },
        {
          "internalType": "address",
          "name": "userAddress",
          "type": "address"
        },
        {
          "internalType": "string",
          "name": "name",
          "type": "string"
        }
      ],
      "name": "addUser",
      "outputs": [],
      "stateMutability": "nonpayable",
      "type": "function"
    },
    {
      "inputs": [
        {
          "internalType": "address",
          "name": "account",
          "type": "address"
        },
        {
          "internalType": "string",
          "name": "productId",
          "type": "string"
        }
      ],
      "name": "purchaseByThirdParty",
      "outputs": [],
      "stateMutability": "nonpayable",
      "type": "function"
    },
    {
      "inputs": [
        {
          "internalType": "address",
          "name": "account",
          "type": "address"
        },
        {
          "internalType": "string",
          "name": "productId",
          "type": "string"
        }
      ],
      "name": "purchaseByCustomer",
      "outputs": [],
      "stateMutability": "nonpayable",
      "type": "function"
    },
    {
      "inputs": [
        {
          "internalType": "address",
          "name": "account",
          "type": "address"
        },
        {
          "internalType": "string",
          "name": "productId",
          "type": "string"
        }
      ],
      "name": "shipByDeliveryHub",
      "outputs": [],
      "stateMutability": "nonpayable",
      "type": "function"
    },
    {
      "inputs": [
        {
          "internalType": "address",
          "name": "account",
          "type": "address"
        },
        {
          "internalType": "string",
          "name": "productId",
          "type": "string"
        }
      ],
      "name": "receiveByCustomer",
      "outputs": [],
      "stateMutability": "nonpayable",
      "type": "function"
    },
    {
      "inputs": [
        {
          "internalType": "string",
          "name": "id",
          "type": "string"
        },
        {
          "internalType": "string",
          "name": "name",
          "type": "string"
        },
        {
          "internalType": "address",
          "name": "account",
          "type": "address"
        }
      ],
      "name": "addProduct",
      "outputs": [],
      "stateMutability": "nonpayable",
      "type": "function"
    },
    {
      "inputs": [],
      "name": "getAllProducts",
      "outputs": [
        {
          "components": [
            {
              "internalType": "string",
              "name": "id",
              "type": "string"
            },
            {
              "internalType": "string",
              "name": "name",
              "type": "string"
            },
            {
              "internalType": "address",
              "name": "manufacturerAddress",
              "type": "address"
            },
            {
              "internalType": "string",
              "name": "manufacturerName",
              "type": "string"
            },
            {
              "internalType": "address",
              "name": "thirdPartyAddress",
              "type": "address"
            },
            {
              "internalType": "string",
              "name": "thirdPartyName",
              "type": "string"
            },
            {
              "internalType": "address",
              "name": "deliveryHubAddress",
              "type": "address"
            },
            {
              "internalType": "string",
              "name": "deliveryHubName",
              "type": "string"
            },
            {
              "internalType": "address",
              "name": "customerAddress",
              "type": "address"
            },
            {
              "internalType": "string",
              "name": "customerName",
              "type": "string"
            },
            {
              "internalType": "address",
              "name": "owner",
              "type": "address"
            },
            {
              "internalType": "enum Structure.ProductState",
              "name": "state",
              "type": "uint8"
            },
            {
              "internalType": "bool",
              "name": "deliveryStatus",
              "type": "bool"
            }
          ],
          "internalType": "struct Structure.Product[]",
          "name": "",
          "type": "tuple[]"
        }
      ],
      "stateMutability": "view",
      "type": "function",
      "constant": true
    },
    {
      "inputs": [
        {
          "internalType": "string",
          "name": "id",
          "type": "string"
        }
      ],
      "name": "isProductIdExist",
      "outputs": [
        {
          "internalType": "bool",
          "name": "",
          "type": "bool"
        }
      ],
      "stateMutability": "view",
      "type": "function",
      "constant": true
    },
    {
      "inputs": [
        {
          "internalType": "address",
          "name": "account",
          "type": "address"
        }
      ],
      "name": "isValidUser",
      "outputs": [
        {
          "internalType": "bool",
          "name": "",
          "type": "bool"
        }
      ],
      "stateMutability": "view",
      "type": "function",
      "constant": true
    }
  ],
  "bytecode": "0x608060405234801561001057600080fd5b5033600460006101000a81548173ffffffffffffffffffffffffffffffffffffffff021916908373ffffffffffffffffffffffffffffffffffffffff160217905550600160038190555060006006819055506000600881905550614781806100796000396000f3fe608060405234801561001057600080fd5b50600436106100cf5760003560e01c8063bc1c44a41161008c578063df886bcf11610066578063df886bcf146101fe578063e0df7bb61461021a578063f3c95c6014610238578063f514ce3614610268576100cf565b8063bc1c44a414610196578063cdc341c0146101c6578063d387dcf5146101e2576100cf565b806302ee3a52146100d457806306ca2367146100f257806348ab214a1461010e5780636ba13a8214610140578063882c50411461015e5780639c8a53f81461017a575b600080fd5b6100dc610286565b6040516100e99190613aa0565b60405180910390f35b61010c60048036038101906101079190613c37565b610856565b005b61012860048036038101906101239190613cc2565b611148565b60405161013793929190613d90565b60405180910390f35b610148611227565b6040516101559190613de7565b60405180910390f35b61017860048036038101906101739190613e02565b61122d565b005b610194600480360381019061018f9190613e02565b61182e565b005b6101b060048036038101906101ab9190613e5e565b61206d565b6040516101bd9190613eb6565b60405180910390f35b6101e060048036038101906101db9190613e02565b6120ee565b005b6101fc60048036038101906101f79190613e02565b61292e565b005b61021860048036038101906102139190613efd565b613134565b005b610222613556565b60405161022f9190613de7565b60405180910390f35b610252600480360381019061024d9190613cc2565b61355c565b60405161025f9190613eb6565b60405180910390f35b610270613606565b60405161027d9190613de7565b60405180910390f35b60606007805480602002602001604051908101604052809291908181526020016000905b8282101561084d57838290600052602060002090600b0201604051806101a00160405290816000820180546102de90613f9b565b80601f016020809104026020016040519081016040528092919081815260200182805461030a90613f9b565b80156103575780601f1061032c57610100808354040283529160200191610357565b820191906000526020600020905b81548152906001019060200180831161033a57829003601f168201915b5050505050815260200160018201805461037090613f9b565b80601f016020809104026020016040519081016040528092919081815260200182805461039c90613f9b565b80156103e95780601f106103be576101008083540402835291602001916103e9565b820191906000526020600020905b8154815290600101906020018083116103cc57829003601f168201915b505050505081526020016002820160009054906101000a900473ffffffffffffffffffffffffffffffffffffffff1673ffffffffffffffffffffffffffffffffffffffff1673ffffffffffffffffffffffffffffffffffffffff16815260200160038201805461045890613f9b565b80601f016020809104026020016040519081016040528092919081815260200182805461048490613f9b565b80156104d15780601f106104a6576101008083540402835291602001916104d1565b820191906000526020600020905b8154815290600101906020018083116104b457829003601f168201915b505050505081526020016004820160009054906101000a900473ffffffffffffffffffffffffffffffffffffffff1673ffffffffffffffffffffffffffffffffffffffff1673ffffffffffffffffffffffffffffffffffffffff16815260200160058201805461054090613f9b565b80601f016020809104026020016040519081016040528092919081815260200182805461056c90613f9b565b80156105b95780601f1061058e576101008083540402835291602001916105b9565b820191906000526020600020905b81548152906001019060200180831161059c57829003601f168201915b505050505081526020016006820160009054906101000a900473ffffffffffffffffffffffffffffffffffffffff1673ffffffffffffffffffffffffffffffffffffffff1673ffffffffffffffffffffffffffffffffffffffff16815260200160078201805461062890613f9b565b80601f016020809104026020016040519081016040528092919081815260200182805461065490613f9b565b80156106a15780601f10610676576101008083540402835291602001916106a1565b820191906000526020600020905b81548152906001019060200180831161068457829003601f168201915b505050505081526020016008820160009054906101000a900473ffffffffffffffffffffffffffffffffffffffff1673ffffffffffffffffffffffffffffffffffffffff1673ffffffffffffffffffffffffffffffffffffffff16815260200160098201805461071090613f9b565b80601f016020809104026020016040519081016040528092919081815260200182805461073c90613f9b565b80156107895780601f1061075e57610100808354040283529160200191610789565b820191906000526020600020905b81548152906001019060200180831161076c57829003601f168201915b50505050508152602001600a820160009054906101000a900473ffffffffffffffffffffffffffffffffffffffff1673ffffffffffffffffffffffffffffffffffffffff1673ffffffffffffffffffffffffffffffffffffffff168152602001600a820160149054906101000a900460ff16600481111561080d5761080c61383c565b5b600481111561081f5761081e61383c565b5b8152602001600a820160159054906101000a900460ff161515151581525050815260200190600101906102aa565b50505050905090565b826108608161206d565b156108a0576040517f08c379a000000000000000000000000000000000000000000000000000000000815260040161089790614018565b60405180910390fd5b8160008073ffffffffffffffffffffffffffffffffffffffff16600260008473ffffffffffffffffffffffffffffffffffffffff1673ffffffffffffffffffffffffffffffffffffffff16815260200190815260200160002060000160019054906101000a900473ffffffffffffffffffffffffffffffffffffffff1673ffffffffffffffffffffffffffffffffffffffff16141580156109b3575080600381111561094f5761094e61383c565b5b600260008473ffffffffffffffffffffffffffffffffffffffff1673ffffffffffffffffffffffffffffffffffffffff16815260200190815260200160002060000160009054906101000a900460ff1660038111156109b1576109b061383c565b5b145b6109f2576040517f08c379a00000000000000000000000000000000000000000000000000000000081526004016109e990614084565b60405180910390fd5b6000600260008673ffffffffffffffffffffffffffffffffffffffff1673ffffffffffffffffffffffffffffffffffffffff1681526020019081526020016000206040518060600160405290816000820160009054906101000a900460ff166003811115610a6357610a6261383c565b5b6003811115610a7557610a7461383c565b5b81526020016000820160019054906101000a900473ffffffffffffffffffffffffffffffffffffffff1673ffffffffffffffffffffffffffffffffffffffff1673ffffffffffffffffffffffffffffffffffffffff168152602001600182018054610adf90613f9b565b80601f0160208091040260200160405190810160405280929190818152602001828054610b0b90613f9b565b8015610b585780601f10610b2d57610100808354040283529160200191610b58565b820191906000526020600020905b815481529060010190602001808311610b3b57829003601f168201915b5050505050815250509050610b6b61360c565b87816000018190525086816020018190525085816040019073ffffffffffffffffffffffffffffffffffffffff16908173ffffffffffffffffffffffffffffffffffffffff1681525050816040015181606001819052508581610140019073ffffffffffffffffffffffffffffffffffffffff16908173ffffffffffffffffffffffffffffffffffffffff168152505060008161016001906004811115610c1557610c1461383c565b5b90816004811115610c2957610c2861383c565b5b8152505060078190806001815401808255809150506001900390600052602060002090600b02016000909190919091506000820151816000019081610c6e9190614250565b506020820151816001019081610c849190614250565b5060408201518160020160006101000a81548173ffffffffffffffffffffffffffffffffffffffff021916908373ffffffffffffffffffffffffffffffffffffffff1602179055506060820151816003019081610ce19190614250565b5060808201518160040160006101000a81548173ffffffffffffffffffffffffffffffffffffffff021916908373ffffffffffffffffffffffffffffffffffffffff16021790555060a0820151816005019081610d3e9190614250565b5060c08201518160060160006101000a81548173ffffffffffffffffffffffffffffffffffffffff021916908373ffffffffffffffffffffffffffffffffffffffff16021790555060e0820151816007019081610d9b9190614250565b506101008201518160080160006101000a81548173ffffffffffffffffffffffffffffffffffffffff021916908373ffffffffffffffffffffffffffffffffffffffff160217905550610120820151816009019081610dfa9190614250565b5061014082015181600a0160006101000a81548173ffffffffffffffffffffffffffffffffffffffff021916908373ffffffffffffffffffffffffffffffffffffffff16021790555061016082015181600a0160146101000a81548160ff02191690836004811115610e6f57610e6e61383c565b5b021790555061018082015181600a0160156101000a81548160ff021916908315150217905550505060086000815480929190610eaa90614351565b919050555080600089604051610ec091906143d5565b90815260200160405180910390206000820151816000019081610ee39190614250565b506020820151816001019081610ef99190614250565b5060408201518160020160006101000a81548173ffffffffffffffffffffffffffffffffffffffff021916908373ffffffffffffffffffffffffffffffffffffffff1602179055506060820151816003019081610f569190614250565b5060808201518160040160006101000a81548173ffffffffffffffffffffffffffffffffffffffff021916908373ffffffffffffffffffffffffffffffffffffffff16021790555060a0820151816005019081610fb39190614250565b5060c08201518160060160006101000a81548173ffffffffffffffffffffffffffffffffffffffff021916908373ffffffffffffffffffffffffffffffffffffffff16021790555060e08201518160070190816110109190614250565b506101008201518160080160006101000a81548173ffffffffffffffffffffffffffffffffffffffff021916908373ffffffffffffffffffffffffffffffffffffffff16021790555061012082015181600901908161106f9190614250565b5061014082015181600a0160006101000a81548173ffffffffffffffffffffffffffffffffffffffff021916908373ffffffffffffffffffffffffffffffffffffffff16021790555061016082015181600a0160146101000a81548160ff021916908360048111156110e4576110e361383c565b5b021790555061018082015181600a0160156101000a81548160ff021916908315150217905550905050600160085461111c91906143ec565b60018960405161112c91906143d5565b9081526020016040518091039020819055505050505050505050565b60026020528060005260406000206000915090508060000160009054906101000a900460ff16908060000160019054906101000a900473ffffffffffffffffffffffffffffffffffffffff16908060010180546111a490613f9b565b80601f01602080910402602001604051908101604052809291908181526020018280546111d090613f9b565b801561121d5780601f106111f25761010080835404028352916020019161121d565b820191906000526020600020905b81548152906001019060200180831161120057829003601f168201915b5050505050905083565b60065481565b816003600073ffffffffffffffffffffffffffffffffffffffff16600260008473ffffffffffffffffffffffffffffffffffffffff1673ffffffffffffffffffffffffffffffffffffffff16815260200190815260200160002060000160019054906101000a900473ffffffffffffffffffffffffffffffffffffffff1673ffffffffffffffffffffffffffffffffffffffff161415801561134157508060038111156112dd576112dc61383c565b5b600260008473ffffffffffffffffffffffffffffffffffffffff1673ffffffffffffffffffffffffffffffffffffffff16815260200190815260200160002060000160009054906101000a900460ff16600381111561133f5761133e61383c565b5b145b611380576040517f08c379a000000000000000000000000000000000000000000000000000000000815260040161137790614084565b60405180910390fd5b82600073ffffffffffffffffffffffffffffffffffffffff166000826040516113a991906143d5565b9081526020016040518091039020600a0160009054906101000a900473ffffffffffffffffffffffffffffffffffffffff1673ffffffffffffffffffffffffffffffffffffffff1603611431576040517f08c379a00000000000000000000000000000000000000000000000000000000081526004016114289061446c565b60405180910390fd5b600460008560405161144391906143d5565b9081526020016040518091039020600a0160146101000a81548160ff021916908360048111156114765761147561383c565b5b02179055508460008560405161148c91906143d5565b9081526020016040518091039020600a0160006101000a81548173ffffffffffffffffffffffffffffffffffffffff021916908373ffffffffffffffffffffffffffffffffffffffff1602179055506000846040516114eb91906143d5565b9081526020016040518091039020600760018660405161150b91906143d5565b9081526020016040518091039020548154811061152b5761152a61448c565b5b90600052602060002090600b02016000820181600001908161154d91906144d1565b506001820181600101908161156291906144d1565b506002820160009054906101000a900473ffffffffffffffffffffffffffffffffffffffff168160020160006101000a81548173ffffffffffffffffffffffffffffffffffffffff021916908373ffffffffffffffffffffffffffffffffffffffff160217905550600382018160030190816115de91906144d1565b506004820160009054906101000a900473ffffffffffffffffffffffffffffffffffffffff168160040160006101000a81548173ffffffffffffffffffffffffffffffffffffffff021916908373ffffffffffffffffffffffffffffffffffffffff1602179055506005820181600501908161165a91906144d1565b506006820160009054906101000a900473ffffffffffffffffffffffffffffffffffffffff168160060160006101000a81548173ffffffffffffffffffffffffffffffffffffffff021916908373ffffffffffffffffffffffffffffffffffffffff160217905550600782018160070190816116d691906144d1565b506008820160009054906101000a900473ffffffffffffffffffffffffffffffffffffffff168160080160006101000a81548173ffffffffffffffffffffffffffffffffffffffff021916908373ffffffffffffffffffffffffffffffffffffffff1602179055506009820181600901908161175291906144d1565b50600a820160009054906101000a900473ffffffffffffffffffffffffffffffffffffffff1681600a0160006101000a81548173ffffffffffffffffffffffffffffffffffffffff021916908373ffffffffffffffffffffffffffffffffffffffff160217905550600a820160149054906101000a900460ff1681600a0160146101000a81548160ff021916908360048111156117f2576117f161383c565b5b0217905550600a820160159054906101000a900460ff1681600a0160156101000a81548160ff0219169083151502179055509050505050505050565b816003600073ffffffffffffffffffffffffffffffffffffffff16600260008473ffffffffffffffffffffffffffffffffffffffff1673ffffffffffffffffffffffffffffffffffffffff16815260200190815260200160002060000160019054906101000a900473ffffffffffffffffffffffffffffffffffffffff1673ffffffffffffffffffffffffffffffffffffffff161415801561194257508060038111156118de576118dd61383c565b5b600260008473ffffffffffffffffffffffffffffffffffffffff1673ffffffffffffffffffffffffffffffffffffffff16815260200190815260200160002060000160009054906101000a900460ff1660038111156119405761193f61383c565b5b145b611981576040517f08c379a000000000000000000000000000000000000000000000000000000000815260040161197890614084565b60405180910390fd5b82600073ffffffffffffffffffffffffffffffffffffffff166000826040516119aa91906143d5565b9081526020016040518091039020600a0160009054906101000a900473ffffffffffffffffffffffffffffffffffffffff1673ffffffffffffffffffffffffffffffffffffffff1603611a32576040517f08c379a0000000000000000000000000000000000000000000000000000000008152600401611a299061446c565b60405180910390fd5b6000600260008773ffffffffffffffffffffffffffffffffffffffff1673ffffffffffffffffffffffffffffffffffffffff1681526020019081526020016000206040518060600160405290816000820160009054906101000a900460ff166003811115611aa357611aa261383c565b5b6003811115611ab557611ab461383c565b5b81526020016000820160019054906101000a900473ffffffffffffffffffffffffffffffffffffffff1673ffffffffffffffffffffffffffffffffffffffff1673ffffffffffffffffffffffffffffffffffffffff168152602001600182018054611b1f90613f9b565b80601f0160208091040260200160405190810160405280929190818152602001828054611b4b90613f9b565b8015611b985780601f10611b6d57610100808354040283529160200191611b98565b820191906000526020600020905b815481529060010190602001808311611b7b57829003601f168201915b50505050508152505090506002600086604051611bb591906143d5565b9081526020016040518091039020600a0160146101000a81548160ff02191690836004811115611be857611be761383c565b5b021790555085600086604051611bfe91906143d5565b908152602001604051809103902060080160006101000a81548173ffffffffffffffffffffffffffffffffffffffff021916908373ffffffffffffffffffffffffffffffffffffffff1602179055508060400151600086604051611c6291906143d5565b90815260200160405180910390206009019081611c7f9190614250565b5085600086604051611c9191906143d5565b9081526020016040518091039020600a0160006101000a81548173ffffffffffffffffffffffffffffffffffffffff021916908373ffffffffffffffffffffffffffffffffffffffff16021790555060008086604051611cf191906143d5565b9081526020016040518091039020600a0160156101000a81548160ff021916908315150217905550600085604051611d2991906143d5565b90815260200160405180910390206007600187604051611d4991906143d5565b90815260200160405180910390205481548110611d6957611d6861448c565b5b90600052602060002090600b020160008201816000019081611d8b91906144d1565b5060018201816001019081611da091906144d1565b506002820160009054906101000a900473ffffffffffffffffffffffffffffffffffffffff168160020160006101000a81548173ffffffffffffffffffffffffffffffffffffffff021916908373ffffffffffffffffffffffffffffffffffffffff16021790555060038201816003019081611e1c91906144d1565b506004820160009054906101000a900473ffffffffffffffffffffffffffffffffffffffff168160040160006101000a81548173ffffffffffffffffffffffffffffffffffffffff021916908373ffffffffffffffffffffffffffffffffffffffff16021790555060058201816005019081611e9891906144d1565b506006820160009054906101000a900473ffffffffffffffffffffffffffffffffffffffff168160060160006101000a81548173ffffffffffffffffffffffffffffffffffffffff021916908373ffffffffffffffffffffffffffffffffffffffff16021790555060078201816007019081611f1491906144d1565b506008820160009054906101000a900473ffffffffffffffffffffffffffffffffffffffff168160080160006101000a81548173ffffffffffffffffffffffffffffffffffffffff021916908373ffffffffffffffffffffffffffffffffffffffff16021790555060098201816009019081611f9091906144d1565b50600a820160009054906101000a900473ffffffffffffffffffffffffffffffffffffffff1681600a0160006101000a81548173ffffffffffffffffffffffffffffffffffffffff021916908373ffffffffffffffffffffffffffffffffffffffff160217905550600a820160149054906101000a900460ff1681600a0160146101000a81548160ff021916908360048111156120305761202f61383c565b5b0217905550600a820160159054906101000a900460ff1681600a0160156101000a81548160ff021916908315150217905550905050505050505050565b600080600090505b6008548110156120e35782805190602001206007828154811061209b5761209a61448c565b5b90600052602060002090600b02016000016040516120b9919061465c565b6040518091039020036120d05760019150506120e9565b80806120db90614351565b915050612075565b50600090505b919050565b816002600073ffffffffffffffffffffffffffffffffffffffff16600260008473ffffffffffffffffffffffffffffffffffffffff1673ffffffffffffffffffffffffffffffffffffffff16815260200190815260200160002060000160019054906101000a900473ffffffffffffffffffffffffffffffffffffffff1673ffffffffffffffffffffffffffffffffffffffff1614158015612202575080600381111561219e5761219d61383c565b5b600260008473ffffffffffffffffffffffffffffffffffffffff1673ffffffffffffffffffffffffffffffffffffffff16815260200190815260200160002060000160009054906101000a900460ff166003811115612200576121ff61383c565b5b145b612241576040517f08c379a000000000000000000000000000000000000000000000000000000000815260040161223890614084565b60405180910390fd5b82600073ffffffffffffffffffffffffffffffffffffffff1660008260405161226a91906143d5565b9081526020016040518091039020600a0160009054906101000a900473ffffffffffffffffffffffffffffffffffffffff1673ffffffffffffffffffffffffffffffffffffffff16036122f2576040517f08c379a00000000000000000000000000000000000000000000000000000000081526004016122e99061446c565b60405180910390fd5b6000600260008773ffffffffffffffffffffffffffffffffffffffff1673ffffffffffffffffffffffffffffffffffffffff1681526020019081526020016000206040518060600160405290816000820160009054906101000a900460ff1660038111156123635761236261383c565b5b60038111156123755761237461383c565b5b81526020016000820160019054906101000a900473ffffffffffffffffffffffffffffffffffffffff1673ffffffffffffffffffffffffffffffffffffffff1673ffffffffffffffffffffffffffffffffffffffff1681526020016001820180546123df90613f9b565b80601f016020809104026020016040519081016040528092919081815260200182805461240b90613f9b565b80156124585780601f1061242d57610100808354040283529160200191612458565b820191906000526020600020905b81548152906001019060200180831161243b57829003601f168201915b5050505050815250509050600360008660405161247591906143d5565b9081526020016040518091039020600a0160146101000a81548160ff021916908360048111156124a8576124a761383c565b5b0217905550856000866040516124be91906143d5565b908152602001604051809103902060060160006101000a81548173ffffffffffffffffffffffffffffffffffffffff021916908373ffffffffffffffffffffffffffffffffffffffff160217905550806040015160008660405161252291906143d5565b9081526020016040518091039020600701908161253f9190614250565b508560008660405161255191906143d5565b9081526020016040518091039020600a0160006101000a81548173ffffffffffffffffffffffffffffffffffffffff021916908373ffffffffffffffffffffffffffffffffffffffff16021790555060016000866040516125b291906143d5565b9081526020016040518091039020600a0160156101000a81548160ff0219169083151502179055506000856040516125ea91906143d5565b9081526020016040518091039020600760018760405161260a91906143d5565b9081526020016040518091039020548154811061262a5761262961448c565b5b90600052602060002090600b02016000820181600001908161264c91906144d1565b506001820181600101908161266191906144d1565b506002820160009054906101000a900473ffffffffffffffffffffffffffffffffffffffff168160020160006101000a81548173ffffffffffffffffffffffffffffffffffffffff021916908373ffffffffffffffffffffffffffffffffffffffff160217905550600382018160030190816126dd91906144d1565b506004820160009054906101000a900473ffffffffffffffffffffffffffffffffffffffff168160040160006101000a81548173ffffffffffffffffffffffffffffffffffffffff021916908373ffffffffffffffffffffffffffffffffffffffff1602179055506005820181600501908161275991906144d1565b506006820160009054906101000a900473ffffffffffffffffffffffffffffffffffffffff168160060160006101000a81548173ffffffffffffffffffffffffffffffffffffffff021916908373ffffffffffffffffffffffffffffffffffffffff160217905550600782018160070190816127d591906144d1565b506008820160009054906101000a900473ffffffffffffffffffffffffffffffffffffffff168160080160006101000a81548173ffffffffffffffffffffffffffffffffffffffff021916908373ffffffffffffffffffffffffffffffffffffffff1602179055506009820181600901908161285191906144d1565b50600a820160009054906101000a900473ffffffffffffffffffffffffffffffffffffffff1681600a0160006101000a81548173ffffffffffffffffffffffffffffffffffffffff021916908373ffffffffffffffffffffffffffffffffffffffff160217905550600a820160149054906101000a900460ff1681600a0160146101000a81548160ff021916908360048111156128f1576128f061383c565b5b0217905550600a820160159054906101000a900460ff1681600a0160156101000a81548160ff021916908315150217905550905050505050505050565b816001600073ffffffffffffffffffffffffffffffffffffffff16600260008473ffffffffffffffffffffffffffffffffffffffff1673ffffffffffffffffffffffffffffffffffffffff16815260200190815260200160002060000160019054906101000a900473ffffffffffffffffffffffffffffffffffffffff1673ffffffffffffffffffffffffffffffffffffffff1614158015612a4257508060038111156129de576129dd61383c565b5b600260008473ffffffffffffffffffffffffffffffffffffffff1673ffffffffffffffffffffffffffffffffffffffff16815260200190815260200160002060000160009054906101000a900460ff166003811115612a4057612a3f61383c565b5b145b612a81576040517f08c379a0000000000000000000000000000000000000000000000000000000008152600401612a7890614084565b60405180910390fd5b82600073ffffffffffffffffffffffffffffffffffffffff16600082604051612aaa91906143d5565b9081526020016040518091039020600a0160009054906101000a900473ffffffffffffffffffffffffffffffffffffffff1673ffffffffffffffffffffffffffffffffffffffff1603612b32576040517f08c379a0000000000000000000000000000000000000000000000000000000008152600401612b299061446c565b60405180910390fd5b6000600260008773ffffffffffffffffffffffffffffffffffffffff1673ffffffffffffffffffffffffffffffffffffffff1681526020019081526020016000206040518060600160405290816000820160009054906101000a900460ff166003811115612ba357612ba261383c565b5b6003811115612bb557612bb461383c565b5b81526020016000820160019054906101000a900473ffffffffffffffffffffffffffffffffffffffff1673ffffffffffffffffffffffffffffffffffffffff1673ffffffffffffffffffffffffffffffffffffffff168152602001600182018054612c1f90613f9b565b80601f0160208091040260200160405190810160405280929190818152602001828054612c4b90613f9b565b8015612c985780601f10612c6d57610100808354040283529160200191612c98565b820191906000526020600020905b815481529060010190602001808311612c7b57829003601f168201915b50505050508152505090506001600086604051612cb591906143d5565b9081526020016040518091039020600a0160146101000a81548160ff02191690836004811115612ce857612ce761383c565b5b021790555085600086604051612cfe91906143d5565b908152602001604051809103902060040160006101000a81548173ffffffffffffffffffffffffffffffffffffffff021916908373ffffffffffffffffffffffffffffffffffffffff1602179055508060400151600086604051612d6291906143d5565b90815260200160405180910390206005019081612d7f9190614250565b5085600086604051612d9191906143d5565b9081526020016040518091039020600a0160006101000a81548173ffffffffffffffffffffffffffffffffffffffff021916908373ffffffffffffffffffffffffffffffffffffffff160217905550600085604051612df091906143d5565b90815260200160405180910390206007600187604051612e1091906143d5565b90815260200160405180910390205481548110612e3057612e2f61448c565b5b90600052602060002090600b020160008201816000019081612e5291906144d1565b5060018201816001019081612e6791906144d1565b506002820160009054906101000a900473ffffffffffffffffffffffffffffffffffffffff168160020160006101000a81548173ffffffffffffffffffffffffffffffffffffffff021916908373ffffffffffffffffffffffffffffffffffffffff16021790555060038201816003019081612ee391906144d1565b506004820160009054906101000a900473ffffffffffffffffffffffffffffffffffffffff168160040160006101000a81548173ffffffffffffffffffffffffffffffffffffffff021916908373ffffffffffffffffffffffffffffffffffffffff16021790555060058201816005019081612f5f91906144d1565b506006820160009054906101000a900473ffffffffffffffffffffffffffffffffffffffff168160060160006101000a81548173ffffffffffffffffffffffffffffffffffffffff021916908373ffffffffffffffffffffffffffffffffffffffff16021790555060078201816007019081612fdb91906144d1565b506008820160009054906101000a900473ffffffffffffffffffffffffffffffffffffffff168160080160006101000a81548173ffffffffffffffffffffffffffffffffffffffff021916908373ffffffffffffffffffffffffffffffffffffffff1602179055506009820181600901908161305791906144d1565b50600a820160009054906101000a900473ffffffffffffffffffffffffffffffffffffffff1681600a0160006101000a81548173ffffffffffffffffffffffffffffffffffffffff021916908373ffffffffffffffffffffffffffffffffffffffff160217905550600a820160149054906101000a900460ff1681600a0160146101000a81548160ff021916908360048111156130f7576130f661383c565b5b0217905550600a820160159054906101000a900460ff1681600a0160156101000a81548160ff021916908315150217905550905050505050505050565b8260008114806131445750600181145b8061314f5750600281145b8061315a5750600381145b613199576040517f08c379a0000000000000000000000000000000000000000000000000000000008152600401613190906146bf565b60405180910390fd5b82600073ffffffffffffffffffffffffffffffffffffffff16600260008373ffffffffffffffffffffffffffffffffffffffff1673ffffffffffffffffffffffffffffffffffffffff16815260200190815260200160002060000160019054906101000a900473ffffffffffffffffffffffffffffffffffffffff1673ffffffffffffffffffffffffffffffffffffffff161461326b576040517f08c379a00000000000000000000000000000000000000000000000000000000081526004016132629061472b565b60405180910390fd5b6132736136f6565b600086036132b1576000816000019060038111156132945761329361383c565b5b908160038111156132a8576132a761383c565b5b8152505061336a565b600186036132ef576001816000019060038111156132d2576132d161383c565b5b908160038111156132e6576132e561383c565b5b81525050613369565b6002860361332d576002816000019060038111156133105761330f61383c565b5b908160038111156133245761332361383c565b5b81525050613368565b600386036133675760038160000190600381111561334e5761334d61383c565b5b908160038111156133625761336161383c565b5b815250505b5b5b5b84816020019073ffffffffffffffffffffffffffffffffffffffff16908173ffffffffffffffffffffffffffffffffffffffff1681525050838160400181905250600581908060018154018082558091505060019003906000526020600020906002020160009091909190915060008201518160000160006101000a81548160ff021916908360038111156134025761340161383c565b5b021790555060208201518160000160016101000a81548173ffffffffffffffffffffffffffffffffffffffff021916908373ffffffffffffffffffffffffffffffffffffffff16021790555060408201518160010190816134639190614250565b5050506006600081548092919061347990614351565b919050555080600260008773ffffffffffffffffffffffffffffffffffffffff1673ffffffffffffffffffffffffffffffffffffffff16815260200190815260200160002060008201518160000160006101000a81548160ff021916908360038111156134e9576134e861383c565b5b021790555060208201518160000160016101000a81548173ffffffffffffffffffffffffffffffffffffffff021916908373ffffffffffffffffffffffffffffffffffffffff160217905550604082015181600101908161354a9190614250565b50905050505050505050565b60085481565b60008073ffffffffffffffffffffffffffffffffffffffff16600260008473ffffffffffffffffffffffffffffffffffffffff1673ffffffffffffffffffffffffffffffffffffffff16815260200190815260200160002060000160019054906101000a900473ffffffffffffffffffffffffffffffffffffffff1673ffffffffffffffffffffffffffffffffffffffff16036135fc5760009050613601565b600190505b919050565b60035481565b604051806101a001604052806060815260200160608152602001600073ffffffffffffffffffffffffffffffffffffffff16815260200160608152602001600073ffffffffffffffffffffffffffffffffffffffff16815260200160608152602001600073ffffffffffffffffffffffffffffffffffffffff16815260200160608152602001600073ffffffffffffffffffffffffffffffffffffffff16815260200160608152602001600073ffffffffffffffffffffffffffffffffffffffff168152602001600060048111156136e7576136e661383c565b5b81526020016000151581525090565b6040518060600160405280600060038111156137155761371461383c565b5b8152602001600073ffffffffffffffffffffffffffffffffffffffff168152602001606081525090565b600081519050919050565b600082825260208201905092915050565b6000819050602082019050919050565b600081519050919050565b600082825260208201905092915050565b60005b838110156137a557808201518184015260208101905061378a565b60008484015250505050565b6000601f19601f8301169050919050565b60006137cd8261376b565b6137d78185613776565b93506137e7818560208601613787565b6137f0816137b1565b840191505092915050565b600073ffffffffffffffffffffffffffffffffffffffff82169050919050565b6000613826826137fb565b9050919050565b6138368161381b565b82525050565b7f4e487b7100000000000000000000000000000000000000000000000000000000600052602160045260246000fd5b6005811061387c5761387b61383c565b5b50565b600081905061388d8261386b565b919050565b600061389d8261387f565b9050919050565b6138ad81613892565b82525050565b60008115159050919050565b6138c8816138b3565b82525050565b60006101a08301600083015184820360008601526138ec82826137c2565b9150506020830151848203602086015261390682826137c2565b915050604083015161391b604086018261382d565b506060830151848203606086015261393382826137c2565b9150506080830151613948608086018261382d565b5060a083015184820360a086015261396082826137c2565b91505060c083015161397560c086018261382d565b5060e083015184820360e086015261398d82826137c2565b9150506101008301516139a461010086018261382d565b506101208301518482036101208601526139be82826137c2565b9150506101408301516139d561014086018261382d565b506101608301516139ea6101608601826138a4565b506101808301516139ff6101808601826138bf565b508091505092915050565b6000613a1683836138ce565b905092915050565b6000602082019050919050565b6000613a368261373f565b613a40818561374a565b935083602082028501613a528561375b565b8060005b85811015613a8e5784840389528151613a6f8582613a0a565b9450613a7a83613a1e565b925060208a01995050600181019050613a56565b50829750879550505050505092915050565b60006020820190508181036000830152613aba8184613a2b565b905092915050565b6000604051905090565b600080fd5b600080fd5b600080fd5b600080fd5b7f4e487b7100000000000000000000000000000000000000000000000000000000600052604160045260246000fd5b613b18826137b1565b810181811067ffffffffffffffff82111715613b3757613b36613ae0565b5b80604052505050565b6000613b4a613ac2565b9050613b568282613b0f565b919050565b600067ffffffffffffffff821115613b7657613b75613ae0565b5b613b7f826137b1565b9050602081019050919050565b82818337600083830152505050565b6000613bae613ba984613b5b565b613b40565b905082815260208101848484011115613bca57613bc9613adb565b5b613bd5848285613b8c565b509392505050565b600082601f830112613bf257613bf1613ad6565b5b8135613c02848260208601613b9b565b91505092915050565b613c148161381b565b8114613c1f57600080fd5b50565b600081359050613c3181613c0b565b92915050565b600080600060608486031215613c5057613c4f613acc565b5b600084013567ffffffffffffffff811115613c6e57613c6d613ad1565b5b613c7a86828701613bdd565b935050602084013567ffffffffffffffff811115613c9b57613c9a613ad1565b5b613ca786828701613bdd565b9250506040613cb886828701613c22565b9150509250925092565b600060208284031215613cd857613cd7613acc565b5b6000613ce684828501613c22565b91505092915050565b60048110613d0057613cff61383c565b5b50565b6000819050613d1182613cef565b919050565b6000613d2182613d03565b9050919050565b613d3181613d16565b82525050565b613d408161381b565b82525050565b600082825260208201905092915050565b6000613d628261376b565b613d6c8185613d46565b9350613d7c818560208601613787565b613d85816137b1565b840191505092915050565b6000606082019050613da56000830186613d28565b613db26020830185613d37565b8181036040830152613dc48184613d57565b9050949350505050565b6000819050919050565b613de181613dce565b82525050565b6000602082019050613dfc6000830184613dd8565b92915050565b60008060408385031215613e1957613e18613acc565b5b6000613e2785828601613c22565b925050602083013567ffffffffffffffff811115613e4857613e47613ad1565b5b613e5485828601613bdd565b9150509250929050565b600060208284031215613e7457613e73613acc565b5b600082013567ffffffffffffffff811115613e9257613e91613ad1565b5b613e9e84828501613bdd565b91505092915050565b613eb0816138b3565b82525050565b6000602082019050613ecb6000830184613ea7565b92915050565b613eda81613dce565b8114613ee557600080fd5b50565b600081359050613ef781613ed1565b92915050565b600080600060608486031215613f1657613f15613acc565b5b6000613f2486828701613ee8565b9350506020613f3586828701613c22565b925050604084013567ffffffffffffffff811115613f5657613f55613ad1565b5b613f6286828701613bdd565b9150509250925092565b7f4e487b7100000000000000000000000000000000000000000000000000000000600052602260045260246000fd5b60006002820490506001821680613fb357607f821691505b602082108103613fc657613fc5613f6c565b5b50919050565b7f50726f6475637420696420657869737473000000000000000000000000000000600082015250565b6000614002601183613d46565b915061400d82613fcc565b602082019050919050565b6000602082019050818103600083015261403181613ff5565b9050919050565b7f5573657220646f65736e2774206861766520726571756972656420726f6c6500600082015250565b600061406e601f83613d46565b915061407982614038565b602082019050919050565b6000602082019050818103600083015261409d81614061565b9050919050565b60008190508160005260206000209050919050565b60006020601f8301049050919050565b600082821b905092915050565b6000600883026141067fffffffffffffffffffffffffffffffffffffffffffffffffffffffffffffffff826140c9565b61411086836140c9565b95508019841693508086168417925050509392505050565b6000819050919050565b600061414d61414861414384613dce565b614128565b613dce565b9050919050565b6000819050919050565b61416783614132565b61417b61417382614154565b8484546140d6565b825550505050565b600090565b614190614183565b61419b81848461415e565b505050565b5b818110156141bf576141b4600082614188565b6001810190506141a1565b5050565b601f821115614204576141d5816140a4565b6141de846140b9565b810160208510156141ed578190505b6142016141f9856140b9565b8301826141a0565b50505b505050565b600082821c905092915050565b600061422760001984600802614209565b1980831691505092915050565b60006142408383614216565b9150826002028217905092915050565b6142598261376b565b67ffffffffffffffff81111561427257614271613ae0565b5b61427c8254613f9b565b6142878282856141c3565b600060209050601f8311600181146142ba57600084156142a8578287015190505b6142b28582614234565b86555061431a565b601f1984166142c8866140a4565b60005b828110156142f0578489015182556001820191506020850194506020810190506142cb565b8683101561430d5784890151614309601f891682614216565b8355505b6001600288020188555050505b505050505050565b7f4e487b7100000000000000000000000000000000000000000000000000000000600052601160045260246000fd5b600061435c82613dce565b91507fffffffffffffffffffffffffffffffffffffffffffffffffffffffffffffffff820361438e5761438d614322565b5b600182019050919050565b600081905092915050565b60006143af8261376b565b6143b98185614399565b93506143c9818560208601613787565b80840191505092915050565b60006143e182846143a4565b915081905092915050565b60006143f782613dce565b915061440283613dce565b925082820390508181111561441a57614419614322565b5b92915050565b7f50726f6475637420646f65736e27742065786973747300000000000000000000600082015250565b6000614456601683613d46565b915061446182614420565b602082019050919050565b6000602082019050818103600083015261448581614449565b9050919050565b7f4e487b7100000000000000000000000000000000000000000000000000000000600052603260045260246000fd5b6000815490506144ca81613f9b565b9050919050565b8181036144df5750506145b7565b6144e8826144bb565b67ffffffffffffffff81111561450157614500613ae0565b5b61450b8254613f9b565b6145168282856141c3565b6000601f8311600181146145455760008415614533578287015490505b61453d8582614234565b8655506145b0565b601f198416614553876140a4565b965061455e866140a4565b60005b8281101561458657848901548255600182019150600185019450602081019050614561565b868310156145a3578489015461459f601f891682614216565b8355505b6001600288020188555050505b5050505050505b565b600081905092915050565b60008190508160005260206000209050919050565b600081546145e681613f9b565b6145f081866145b9565b9450600182166000811461460b576001811461462057614653565b60ff1983168652811515820286019350614653565b614629856145c4565b60005b8381101561464b5781548189015260018201915060208101905061462c565b838801955050505b50505092915050565b600061466882846145d9565b915081905092915050565b7f526f6c6520697320696e76616c69640000000000000000000000000000000000600082015250565b60006146a9600f83613d46565b91506146b482614673565b602082019050919050565b600060208201905081810360008301526146d88161469c565b9050919050565b7f5573657220697320657869737473000000000000000000000000000000000000600082015250565b6000614715600e83613d46565b9150614720826146df565b602082019050919050565b6000602082019050818103600083015261474481614708565b905091905056fea2646970667358221220d0c65f0c9d01e5882d2954698d003515e45f3a15438a0910de528c37e0dfde6c64736f6c63430008120033",
  "immutableReferences": {},
  "source": "// SPDX-License-Identifier: MIT\r\npragma solidity >=0.4.21 <0.9.0;\r\n\r\nimport \"./Structure.sol\";\r\n\r\n/// @author Truong Manh Sang\r\n/// @title Supply Chain contract\r\ncontract SupplyChain {\r\n    constructor() {\r\n        owner = msg.sender;\r\n        uid = 1;\r\n        usersCount = 0;\r\n        productsCount = 0;\r\n    }\r\n\r\n    mapping(string => Structure.Product) productsMapping;\r\n    mapping(string => uint256) productsIndexMapping;\r\n    mapping(address => Structure.User) public usersMapping;\r\n    uint256 public uid;\r\n    address owner;\r\n    Structure.User[] users;\r\n    uint256 public usersCount;\r\n    Structure.Product[] products;\r\n    uint256 public productsCount;\r\n\r\n    modifier verifyValidRole(uint256 role) {\r\n        require(\r\n            role == 0 || role == 1 || role == 2 || role == 3,\r\n            \"Role is invalid\"\r\n        );\r\n        _;\r\n    }\r\n    modifier verifyUserNotExists(address account) {\r\n        require(\r\n            usersMapping[account].userAddress == address(0),\r\n            \"User is exists\"\r\n        );\r\n        _;\r\n    }\r\n    modifier verifyProductIdUnique(string memory productId) {\r\n        require(!isProductIdExist(productId), \"Product id exists\");\r\n        _;\r\n    }\r\n    modifier hasRole(address account, Structure.Role role) {\r\n        require(\r\n            usersMapping[account].userAddress != address(0) &&\r\n                usersMapping[account].role == role,\r\n            \"User doesn't have required role\"\r\n        );\r\n        _;\r\n    }\r\n    modifier productExists(string memory productId) {\r\n        require(\r\n            productsMapping[productId].owner != address(0),\r\n            \"Product doesn't exists\"\r\n        );\r\n        _;\r\n    }\r\n\r\n    /// Add new user\r\n    /// @param role The role for user in int\r\n    ///             0: Manufacturer\r\n    ///             1: ThirdParty\r\n    ///             2: DeliveryHub\r\n    ///             3: Customer\r\n    /// @param userAddress Wallet address of user\r\n    /// @param name Name of user\r\n    function addUser(\r\n        uint256 role,\r\n        address userAddress,\r\n        string memory name\r\n    ) public verifyValidRole(role) verifyUserNotExists(userAddress) {\r\n        Structure.User memory user;\r\n        if (role == 0) {\r\n            user.role = Structure.Role.Manufacturer;\r\n        } else if (role == 1) {\r\n            user.role = Structure.Role.ThirdParty;\r\n        } else if (role == 2) {\r\n            user.role = Structure.Role.DeliveryHub;\r\n        } else if (role == 3) {\r\n            user.role = Structure.Role.Customer;\r\n        }\r\n        user.userAddress = userAddress;\r\n        user.name = name;\r\n        users.push(user);\r\n        usersCount++;\r\n\r\n        usersMapping[userAddress] = user;\r\n    }\r\n\r\n    /// Purchase the product by third party\r\n    /// @param account Wallet address of third party\r\n    /// @param productId Product Id\r\n    function purchaseByThirdParty(\r\n        address account,\r\n        string memory productId\r\n    )\r\n        public\r\n        hasRole(account, Structure.Role.ThirdParty)\r\n        productExists(productId)\r\n    {\r\n        Structure.User memory user = usersMapping[account];\r\n\r\n        productsMapping[productId].state = Structure\r\n            .ProductState\r\n            .PurchasedByThirdParty;\r\n        productsMapping[productId].thirdPartyAddress = account;\r\n        productsMapping[productId].thirdPartyName = user.name;\r\n        productsMapping[productId].owner = account;\r\n\r\n        products[productsIndexMapping[productId]] = productsMapping[productId];\r\n    }\r\n\r\n    /// Purchase the product by customer\r\n    /// @param account Wallet address of customer\r\n    /// @param productId Product Id\r\n    function purchaseByCustomer(\r\n        address account,\r\n        string memory productId\r\n    )\r\n        public\r\n        hasRole(account, Structure.Role.Customer)\r\n        productExists(productId)\r\n    {\r\n        Structure.User memory user = usersMapping[account];\r\n\r\n        productsMapping[productId].state = Structure\r\n            .ProductState\r\n            .PurchasedByCustomer;\r\n        productsMapping[productId].customerAddress = account;\r\n        productsMapping[productId].customerName = user.name;\r\n        productsMapping[productId].owner = account;\r\n        productsMapping[productId].deliveryStatus = false;\r\n\r\n        products[productsIndexMapping[productId]] = productsMapping[productId];\r\n    }\r\n\r\n    /// Ship by delivery hub\r\n    /// @param account Wallet address of delivery hub\r\n    /// @param productId Product Id\r\n    function shipByDeliveryHub(\r\n        address account,\r\n        string memory productId\r\n    )\r\n        public\r\n        hasRole(account, Structure.Role.DeliveryHub)\r\n        productExists(productId)\r\n    {\r\n        Structure.User memory user = usersMapping[account];\r\n\r\n        productsMapping[productId].state = Structure\r\n            .ProductState\r\n            .ShippedByDeliveryHub;\r\n        productsMapping[productId].deliveryHubAddress = account;\r\n        productsMapping[productId].deliveryHubName = user.name;\r\n        productsMapping[productId].owner = account;\r\n        productsMapping[productId].deliveryStatus = true;\r\n\r\n        products[productsIndexMapping[productId]] = productsMapping[productId];\r\n    }\r\n\r\n    /// Receive by customer\r\n    /// @param account Wallet address of customer\r\n    /// @param productId Product Id\r\n    function receiveByCustomer(\r\n        address account,\r\n        string memory productId\r\n    )\r\n        public\r\n        hasRole(account, Structure.Role.Customer)\r\n        productExists(productId)\r\n    {\r\n        productsMapping[productId].state = Structure\r\n            .ProductState\r\n            .ReceivedByCustomer;\r\n        productsMapping[productId].owner = account;\r\n        products[productsIndexMapping[productId]] = productsMapping[productId];\r\n    }\r\n\r\n    /// Add new product\r\n    /// @param id Product Id\r\n    /// @param name Product Name\r\n    /// @param account Wallet address of manufacturer\r\n    function addProduct(\r\n        string memory id,\r\n        string memory name,\r\n        address account\r\n    )\r\n        public\r\n        verifyProductIdUnique(id)\r\n        hasRole(account, Structure.Role.Manufacturer)\r\n    {\r\n        Structure.User memory user = usersMapping[account];\r\n        Structure.Product memory product;\r\n\r\n        product.id = id;\r\n        product.name = name;\r\n        product.manufacturerAddress = account;\r\n        product.manufacturerName = user.name;\r\n        product.owner = account;\r\n        product.state = Structure.ProductState.Manufactured;\r\n        products.push(product);\r\n        productsCount++;\r\n\r\n        productsMapping[id] = product;\r\n        productsIndexMapping[id] = productsCount - 1;\r\n    }\r\n\r\n    /// Get all products\r\n    /// @return Product Product list\r\n    function getAllProducts() public view returns (Structure.Product[] memory) {\r\n        return products;\r\n    }\r\n\r\n    /// Check product exist\r\n    /// @param id Product Id\r\n    /// @return bool True: product is exist - False: product isn't exist\r\n    function isProductIdExist(string memory id) public view returns (bool) {\r\n        for (uint256 i = 0; i < productsCount; i++) {\r\n            if (keccak256(bytes(products[i].id)) == keccak256(bytes(id))) {\r\n                return true;\r\n            }\r\n        }\r\n        return false;\r\n    }\r\n\r\n    /// Validate if a user address has been registered with some role.\r\n    /// @param account User address\r\n    /// @return bool True: if user exists\r\n    function isValidUser(address account) public view returns (bool) {\r\n        if (usersMapping[account].userAddress == address(0)) {\r\n            return false;\r\n        }\r\n\r\n        return true;\r\n    }\r\n}\r\n",
  "sourcePath": "/home/supply-chain-dapp/smartcontracts/contracts/SupplyChain.sol",
  "compiler": {
    "name": "solc",
    "version": "0.8.18+commit.87f61d96.Emscripten.clang"
  },
  "schemaVersion": "3.4.14",
  "updatedAt": "2023-05-23T10:43:56.611Z",
  "networkType": "ethereum",
  "devdoc": {
    "author": "Truong Manh Sang",
    "kind": "dev",
    "methods": {
      "addProduct(string,string,address)": {
        "params": {
          "account": "Wallet address of manufacturer",
          "id": "Product Id",
          "name": "Product Name"
        }
      },
      "addUser(uint256,address,string)": {
        "params": {
          "name": "Name of user",
          "role": "The role for user in int             0: Manufacturer             1: ThirdParty             2: DeliveryHub             3: Customer",
          "userAddress": "Wallet address of user"
        }
      },
      "getAllProducts()": {
        "returns": {
          "_0": "Product Product list"
        }
      },
      "isProductIdExist(string)": {
        "params": {
          "id": "Product Id"
        },
        "returns": {
          "_0": "bool True: product is exist - False: product isn't exist"
        }
      },
      "isValidUser(address)": {
        "params": {
          "account": "User address"
        },
        "returns": {
          "_0": "bool True: if user exists"
        }
      },
      "purchaseByCustomer(address,string)": {
        "params": {
          "account": "Wallet address of customer",
          "productId": "Product Id"
        }
      },
      "purchaseByThirdParty(address,string)": {
        "params": {
          "account": "Wallet address of third party",
          "productId": "Product Id"
        }
      },
      "receiveByCustomer(address,string)": {
        "params": {
          "account": "Wallet address of customer",
          "productId": "Product Id"
        }
      },
      "shipByDeliveryHub(address,string)": {
        "params": {
          "account": "Wallet address of delivery hub",
          "productId": "Product Id"
        }
      }
    },
    "title": "Supply Chain contract",
    "version": 1
  },
  "userdoc": {
    "kind": "user",
    "methods": {
      "addProduct(string,string,address)": {
        "notice": "Add new product"
      },
      "addUser(uint256,address,string)": {
        "notice": "Add new user"
      },
      "getAllProducts()": {
        "notice": "Get all products"
      },
      "isProductIdExist(string)": {
        "notice": "Check product exist"
      },
      "isValidUser(address)": {
        "notice": "Validate if a user address has been registered with some role."
      },
      "purchaseByCustomer(address,string)": {
        "notice": "Purchase the product by customer"
      },
      "purchaseByThirdParty(address,string)": {
        "notice": "Purchase the product by third party"
      },
      "receiveByCustomer(address,string)": {
        "notice": "Receive by customer"
      },
      "shipByDeliveryHub(address,string)": {
        "notice": "Ship by delivery hub"
      }
    },
    "version": 1
  }
}